{
  "contractName": "OrgBlock",
  "abi": [
    {
      "constant": true,
      "inputs": [],
      "name": "to",
      "outputs": [
        {
          "name": "",
          "type": "string"
        }
      ],
      "payable": false,
      "stateMutability": "view",
      "type": "function"
    },
    {
      "constant": true,
      "inputs": [
        {
          "name": "",
          "type": "uint256"
        }
      ],
      "name": "users",
      "outputs": [
        {
          "name": "id",
          "type": "uint256"
        },
        {
          "name": "s",
          "type": "string"
        },
        {
          "name": "reputation",
          "type": "uint256"
        },
        {
          "name": "amount_recieved",
          "type": "uint256"
        },
        {
          "name": "amount_spent",
          "type": "uint256"
        }
      ],
      "payable": false,
      "stateMutability": "view",
      "type": "function"
    },
    {
      "constant": true,
      "inputs": [],
      "name": "validity",
      "outputs": [
        {
          "name": "",
          "type": "uint256"
        }
      ],
      "payable": false,
      "stateMutability": "view",
      "type": "function"
    },
    {
      "constant": true,
      "inputs": [],
      "name": "usersCount",
      "outputs": [
        {
          "name": "",
          "type": "uint256"
        }
      ],
      "payable": false,
      "stateMutability": "view",
      "type": "function"
    },
    {
      "constant": true,
      "inputs": [],
      "name": "remark",
      "outputs": [
        {
          "name": "",
          "type": "string"
        }
      ],
      "payable": false,
      "stateMutability": "view",
      "type": "function"
    },
    {
      "constant": true,
      "inputs": [],
      "name": "amount",
      "outputs": [
        {
          "name": "",
          "type": "uint256"
        }
      ],
      "payable": false,
      "stateMutability": "view",
      "type": "function"
    },
    {
      "constant": true,
      "inputs": [],
      "name": "from",
      "outputs": [
        {
          "name": "",
          "type": "string"
        }
      ],
      "payable": false,
      "stateMutability": "view",
      "type": "function"
    },
    {
      "constant": true,
      "inputs": [],
      "name": "uT",
      "outputs": [
        {
          "name": "",
          "type": "uint8"
        }
      ],
      "payable": false,
      "stateMutability": "view",
      "type": "function"
    },
    {
      "inputs": [],
      "payable": false,
      "stateMutability": "nonpayable",
      "type": "constructor"
    },
    {
      "constant": true,
      "inputs": [],
      "name": "getUsers",
      "outputs": [
        {
          "name": "",
          "type": "uint256"
        }
      ],
      "payable": false,
      "stateMutability": "view",
      "type": "function"
    },
    {
      "constant": false,
      "inputs": [
        {
          "name": "From",
          "type": "string"
        },
        {
          "name": "To",
          "type": "string"
        },
        {
          "name": "Remark",
          "type": "string"
        },
        {
          "name": "Amount",
          "type": "uint256"
        },
        {
          "name": "Validity",
          "type": "uint256"
        }
      ],
      "name": "createBlock",
      "outputs": [
        {
          "name": "",
          "type": "string"
        }
      ],
      "payable": false,
      "stateMutability": "nonpayable",
      "type": "function"
    },
    {
      "constant": true,
      "inputs": [],
      "name": "totalAmountRecieved",
      "outputs": [
        {
          "name": "",
          "type": "uint256"
        }
      ],
      "payable": false,
      "stateMutability": "view",
      "type": "function"
    }
  ],
  "bytecode": "0x608060405260006001553480156200001657600080fd5b50600080600080600060039450600a93506005925060019150600060018190555060006006819055506000600781905550600090505b84811015620000b757620000a96040805190810160405280600c81526020017f4f7267616e697a6174696f6e00000000000000000000000000000000000000008152506000806000620001f6640100000000026401000000009004565b80806001019150506200004c565b600090505b838110156200012757620001196040805190810160405280600581526020017f446f6e6f720000000000000000000000000000000000000000000000000000008152506000806000620001f6640100000000026401000000009004565b8080600101915050620000bc565b600090505b828110156200019757620001896040805190810160405280600881526020017f52657461696c65720000000000000000000000000000000000000000000000008152506000806000620001f6640100000000026401000000009004565b80806001019150506200012c565b620001eb6040805190810160405280600e81526020017f5061796d656e74476174657761790000000000000000000000000000000000008152506000806000620001f6640100000000026401000000009004565b505050505062000345565b60016000815480929190600101919050555060a06040519081016040528060015481526020018581526020018481526020018381526020018281525060008060015481526020019081526020016000206000820151816000015560208201518160010190805190602001906200026e92919062000296565b5060408201518160020155606082015181600301556080820151816004015590505050505050565b828054600181600116156101000203166002900490600052602060002090601f016020900481019282601f10620002d957805160ff19168380011785556200030a565b828001600101855582156200030a579182015b8281111562000309578251825591602001919060010190620002ec565b5b5090506200031991906200031d565b5090565b6200034291905b808211156200033e57600081600090555060010162000324565b5090565b90565b610a6480620003556000396000f3006080604052600436106100ae576000357c0100000000000000000000000000000000000000000000000000000000900463ffffffff168062ce8e3e146100b357806313151981146100de578063335c9d1c1461016e578063365b98b2146101995780633e98d1fb1461025b5780636ba13a8214610286578063a47d1f5e146102b1578063aa8c217c14610341578063c16f3fff1461036c578063d5ce3389146104ee578063f77a727b1461057e575b600080fd5b3480156100bf57600080fd5b506100c86105b7565b6040518082815260200191505060405180910390f35b3480156100ea57600080fd5b506100f36105c1565b6040518080602001828103825283818151815260200191508051906020019080838360005b83811015610133578082015181840152602081019050610118565b50505050905090810190601f1680156101605780820380516001836020036101000a031916815260200191505b509250505060405180910390f35b34801561017a57600080fd5b5061018361065f565b6040518082815260200191505060405180910390f35b3480156101a557600080fd5b506101c460048036038101908080359060200190929190505050610669565b6040518086815260200180602001858152602001848152602001838152602001828103825286818151815260200191508051906020019080838360005b8381101561021c578082015181840152602081019050610201565b50505050905090810190601f1680156102495780820380516001836020036101000a031916815260200191505b50965050505050505060405180910390f35b34801561026757600080fd5b50610270610737565b6040518082815260200191505060405180910390f35b34801561029257600080fd5b5061029b61073d565b6040518082815260200191505060405180910390f35b3480156102bd57600080fd5b506102c6610743565b6040518080602001828103825283818151815260200191508051906020019080838360005b838110156103065780820151818401526020810190506102eb565b50505050905090810190601f1680156103335780820380516001836020036101000a031916815260200191505b509250505060405180910390f35b34801561034d57600080fd5b506103566107e1565b6040518082815260200191505060405180910390f35b34801561037857600080fd5b50610473600480360381019080803590602001908201803590602001908080601f0160208091040260200160405190810160405280939291908181526020018383808284378201915050505050509192919290803590602001908201803590602001908080601f0160208091040260200160405190810160405280939291908181526020018383808284378201915050505050509192919290803590602001908201803590602001908080601f016020809104026020016040519081016040528093929190818152602001838380828437820191505050505050919291929080359060200190929190803590602001909291905050506107e7565b6040518080602001828103825283818151815260200191508051906020019080838360005b838110156104b3578082015181840152602081019050610498565b50505050905090810190601f1680156104e05780820380516001836020036101000a031916815260200191505b509250505060405180910390f35b3480156104fa57600080fd5b506105036108e2565b6040518080602001828103825283818151815260200191508051906020019080838360005b83811015610543578082015181840152602081019050610528565b50505050905090810190601f1680156105705780820380516001836020036101000a031916815260200191505b509250505060405180910390f35b34801561058a57600080fd5b50610593610980565b604051808260038111156105a357fe5b60ff16815260200191505060405180910390f35b6000600154905090565b60048054600181600116156101000203166002900480601f0160208091040260200160405190810160405280929190818152602001828054600181600116156101000203166002900480156106575780601f1061062c57610100808354040283529160200191610657565b820191906000526020600020905b81548152906001019060200180831161063a57829003601f168201915b505050505081565b6000600654905090565b6000602052806000526040600020600091509050806000015490806001018054600181600116156101000203166002900480601f01602080910402602001604051908101604052809291908181526020018280546001816001161561010002031660029004801561071b5780601f106106f05761010080835404028352916020019161071b565b820191906000526020600020905b8154815290600101906020018083116106fe57829003601f168201915b5050505050908060020154908060030154908060040154905085565b60075481565b60015481565b60058054600181600116156101000203166002900480601f0160208091040260200160405190810160405280929190818152602001828054600181600116156101000203166002900480156107d95780601f106107ae576101008083540402835291602001916107d9565b820191906000526020600020905b8154815290600101906020018083116107bc57829003601f168201915b505050505081565b60065481565b606085600390805190602001906107ff929190610993565b508460049080519060200190610816929190610993565b50836005908051906020019061082d929190610993565b50826006819055508160078190555060048054600181600116156101000203166002900480601f0160208091040260200160405190810160405280929190818152602001828054600181600116156101000203166002900480156108d25780601f106108a7576101008083540402835291602001916108d2565b820191906000526020600020905b8154815290600101906020018083116108b557829003601f168201915b5050505050905095945050505050565b60038054600181600116156101000203166002900480601f0160208091040260200160405190810160405280929190818152602001828054600181600116156101000203166002900480156109785780601f1061094d57610100808354040283529160200191610978565b820191906000526020600020905b81548152906001019060200180831161095b57829003601f168201915b505050505081565b600260009054906101000a900460ff1681565b828054600181600116156101000203166002900490600052602060002090601f016020900481019282601f106109d457805160ff1916838001178555610a02565b82800160010185558215610a02579182015b82811115610a015782518255916020019190600101906109e6565b5b509050610a0f9190610a13565b5090565b610a3591905b80821115610a31576000816000905550600101610a19565b5090565b905600a165627a7a7230582034b041b743e9736b43d312bacd3c76f98674c3721c6ec09b7552ea5b8865b4070029",
  "source": "pragma solidity ^0.4.24;\n\ncontract OrgBlock {\n\n  enum uType {Organization,Donor,Retailer,PaymentGateway}\n\n  struct User {\n      uint id;\n      string s;\n      uint reputation;\n      uint amount_recieved;\n      uint amount_spent;\n    }\n\n  mapping(uint => User) public users;\n\n  uint public usersCount = 0;\n  uType public uT;\n\n  string public from;\n  string public to;\n  string public remark;\n\n  uint public amount;\n  uint public validity;\n\n  constructor() public {\n    uint Org = 3;\n    uint Don = 10;\n    uint Ret = 5;\n    uint PayG = 1;\n\n    usersCount = 0;\n    amount = 0;\n    validity = 0;\n\n    for (uint i=0; i<Org; i++) {\n      addUser(\"Organization\", 0, 0, 0);\n    }\n    \n    for (i=0; i<Don; i++) {\n      addUser(\"Donor\", 0, 0, 0);\n    }\n\n    for (i=0; i<Ret; i++) {\n      addUser(\"Retailer\", 0, 0, 0);\n    }\n\n    addUser(\"PaymentGateway\", 0, 0, 0);\n  }\n\n  function addUser (string _s, uint _reputation, uint _amount_recieved, uint _amount_spent) private{\n      usersCount ++;\n      users[usersCount] = User(usersCount, _s, _reputation, _amount_recieved, _amount_spent);\n  }\n\n  function getUsers() public view returns (uint){\n    return usersCount;\n  }\n\n  function createBlock(string From, string To, string Remark, uint Amount, uint Validity) public returns (string) {\n    from = From;\n    to = To;\n    remark = Remark;\n    amount = Amount;\n    validity = Validity;\n\n    return to;\n  }\n\n  function totalAmountRecieved() public view returns (uint) {\n    return amount;\n  }\n\n}",
  "sourcePath": "/Users/shreyas/Desktop/UCI Blockathon/OrgBlock_v0/contracts/OrgBlock.sol",
  "compiler": {
    "name": "solc",
    "version": "0.4.24+commit.e67f0147.Emscripten.clang"
  },
  "schemaVersion": "2.0.1",
  "updatedAt": "2018-10-21T12:04:02.778Z"
}