{
  "contractName": "OrgBlock",
  "abi": [
    {
      "constant": true,
      "inputs": [],
      "name": "donationsCount",
      "outputs": [
        {
          "name": "",
          "type": "uint256"
        }
      ],
      "payable": false,
      "stateMutability": "view",
      "type": "function"
    },
    {
      "constant": true,
      "inputs": [
        {
          "name": "",
          "type": "uint256"
        }
      ],
      "name": "users",
      "outputs": [
        {
          "name": "id",
          "type": "uint256"
        },
        {
          "name": "s",
          "type": "string"
        },
        {
          "name": "reputation",
          "type": "uint256"
        },
        {
          "name": "amount_recieved",
          "type": "uint256"
        },
        {
          "name": "amount_spent",
          "type": "uint256"
        },
        {
          "name": "amount_remaining",
          "type": "uint256"
        },
        {
          "name": "user_addr",
          "type": "address"
        },
        {
          "name": "latest_transaction",
          "type": "uint256"
        }
      ],
      "payable": false,
      "stateMutability": "view",
      "type": "function"
    },
    {
      "constant": true,
      "inputs": [],
      "name": "expensesCount",
      "outputs": [
        {
          "name": "",
          "type": "uint256"
        }
      ],
      "payable": false,
      "stateMutability": "view",
      "type": "function"
    },
    {
      "constant": true,
      "inputs": [],
      "name": "usersCount",
      "outputs": [
        {
          "name": "",
          "type": "uint256"
        }
      ],
      "payable": false,
      "stateMutability": "view",
      "type": "function"
    },
    {
      "constant": true,
      "inputs": [],
      "name": "owner",
      "outputs": [
        {
          "name": "",
          "type": "address"
        }
      ],
      "payable": false,
      "stateMutability": "view",
      "type": "function"
    },
    {
      "constant": true,
      "inputs": [
        {
          "name": "",
          "type": "uint256"
        }
      ],
      "name": "expenses",
      "outputs": [
        {
          "components": [
            {
              "name": "id",
              "type": "uint256"
            },
            {
              "name": "s",
              "type": "string"
            },
            {
              "name": "reputation",
              "type": "uint256"
            },
            {
              "name": "amount_recieved",
              "type": "uint256"
            },
            {
              "name": "amount_spent",
              "type": "uint256"
            },
            {
              "name": "amount_remaining",
              "type": "uint256"
            },
            {
              "name": "user_addr",
              "type": "address"
            },
            {
              "name": "latest_transaction",
              "type": "uint256"
            }
          ],
          "name": "fromOrg",
          "type": "tuple"
        },
        {
          "components": [
            {
              "name": "id",
              "type": "uint256"
            },
            {
              "name": "s",
              "type": "string"
            },
            {
              "name": "reputation",
              "type": "uint256"
            },
            {
              "name": "amount_recieved",
              "type": "uint256"
            },
            {
              "name": "amount_spent",
              "type": "uint256"
            },
            {
              "name": "amount_remaining",
              "type": "uint256"
            },
            {
              "name": "user_addr",
              "type": "address"
            },
            {
              "name": "latest_transaction",
              "type": "uint256"
            }
          ],
          "name": "toRetail",
          "type": "tuple"
        },
        {
          "name": "purpose",
          "type": "string"
        },
        {
          "name": "amountSpent",
          "type": "uint256"
        },
        {
          "name": "expValidity",
          "type": "uint256"
        },
        {
          "name": "id",
          "type": "uint256"
        }
      ],
      "payable": false,
      "stateMutability": "view",
      "type": "function"
    },
    {
      "constant": true,
      "inputs": [],
      "name": "uT",
      "outputs": [
        {
          "name": "",
          "type": "uint8"
        }
      ],
      "payable": false,
      "stateMutability": "view",
      "type": "function"
    },
    {
      "constant": true,
      "inputs": [
        {
          "name": "",
          "type": "uint256"
        }
      ],
      "name": "donations",
      "outputs": [
        {
          "components": [
            {
              "name": "id",
              "type": "uint256"
            },
            {
              "name": "s",
              "type": "string"
            },
            {
              "name": "reputation",
              "type": "uint256"
            },
            {
              "name": "amount_recieved",
              "type": "uint256"
            },
            {
              "name": "amount_spent",
              "type": "uint256"
            },
            {
              "name": "amount_remaining",
              "type": "uint256"
            },
            {
              "name": "user_addr",
              "type": "address"
            },
            {
              "name": "latest_transaction",
              "type": "uint256"
            }
          ],
          "name": "toOrg",
          "type": "tuple"
        },
        {
          "name": "donationNote",
          "type": "string"
        },
        {
          "name": "amountDonated",
          "type": "uint256"
        },
        {
          "name": "donValidity",
          "type": "uint256"
        },
        {
          "name": "id",
          "type": "uint256"
        }
      ],
      "payable": false,
      "stateMutability": "view",
      "type": "function"
    },
    {
      "inputs": [],
      "payable": false,
      "stateMutability": "nonpayable",
      "type": "constructor"
    },
    {
      "constant": false,
      "inputs": [
        {
          "name": "_s",
          "type": "string"
        },
        {
          "name": "_reputation",
          "type": "uint256"
        },
        {
          "name": "_amount_recieved",
          "type": "uint256"
        },
        {
          "name": "_amount_spent",
          "type": "uint256"
        }
      ],
      "name": "addUser",
      "outputs": [],
      "payable": false,
      "stateMutability": "nonpayable",
      "type": "function"
    },
    {
      "constant": true,
      "inputs": [],
      "name": "getUsers",
      "outputs": [
        {
          "name": "",
          "type": "uint256"
        }
      ],
      "payable": false,
      "stateMutability": "view",
      "type": "function"
    },
    {
      "constant": false,
      "inputs": [
        {
          "name": "org_id",
          "type": "uint256"
        },
        {
          "name": "donor_id",
          "type": "uint256"
        },
        {
          "name": "donationNote",
          "type": "string"
        },
        {
          "name": "amountDonated",
          "type": "uint256"
        }
      ],
      "name": "addDonation",
      "outputs": [
        {
          "name": "",
          "type": "uint256"
        }
      ],
      "payable": false,
      "stateMutability": "nonpayable",
      "type": "function"
    },
    {
      "constant": false,
      "inputs": [
        {
          "name": "org_id",
          "type": "uint256"
        },
        {
          "name": "retail_id",
          "type": "uint256"
        },
        {
          "name": "purpose",
          "type": "string"
        },
        {
          "name": "amountSpent",
          "type": "uint256"
        }
      ],
      "name": "addExpense",
      "outputs": [
        {
          "name": "",
          "type": "uint256"
        }
      ],
      "payable": false,
      "stateMutability": "nonpayable",
      "type": "function"
    },
    {
      "constant": false,
      "inputs": [
        {
          "name": "u_id",
          "type": "uint256"
        },
        {
          "name": "t_id",
          "type": "uint256"
        }
      ],
      "name": "validateDonation",
      "outputs": [],
      "payable": false,
      "stateMutability": "nonpayable",
      "type": "function"
    },
    {
      "constant": true,
      "inputs": [
        {
          "name": "t_id",
          "type": "uint256"
        }
      ],
      "name": "getDonValidity",
      "outputs": [
        {
          "name": "",
          "type": "uint256"
        }
      ],
      "payable": false,
      "stateMutability": "view",
      "type": "function"
    },
    {
      "constant": false,
      "inputs": [
        {
          "name": "u_id",
          "type": "uint256"
        },
        {
          "name": "t_id",
          "type": "uint256"
        }
      ],
      "name": "validateExpense",
      "outputs": [],
      "payable": false,
      "stateMutability": "nonpayable",
      "type": "function"
    },
    {
      "constant": true,
      "inputs": [
        {
          "name": "t_id",
          "type": "uint256"
        }
      ],
      "name": "getExpValidity",
      "outputs": [
        {
          "name": "",
          "type": "uint256"
        }
      ],
      "payable": false,
      "stateMutability": "view",
      "type": "function"
    },
    {
      "constant": true,
      "inputs": [
        {
          "name": "org_id",
          "type": "uint256"
        }
      ],
      "name": "getAmountRecieved",
      "outputs": [
        {
          "name": "",
          "type": "uint256"
        }
      ],
      "payable": false,
      "stateMutability": "view",
      "type": "function"
    },
    {
      "constant": true,
      "inputs": [
        {
          "name": "org_id",
          "type": "uint256"
        }
      ],
      "name": "getAmountRemaining",
      "outputs": [
        {
          "name": "",
          "type": "uint256"
        }
      ],
      "payable": false,
      "stateMutability": "view",
      "type": "function"
    }
  ],
  "bytecode": "0x60806040523480156200001157600080fd5b5060008060008060039350600a92506005915060019050600060048190555060006005819055506000600681905550336000806101000a81548173ffffffffffffffffffffffffffffffffffffffff021916908373ffffffffffffffffffffffffffffffffffffffff160217905550620000d46040805190810160405280600e81526020017f5061796d656e74476174657761790000000000000000000000000000000000008152506000806000620000de640100000000026401000000009004565b50505050620002b5565b60046000815480929190600101919050555061010060405190810160405280600454815260200185815260200184815260200183815260200182815260200160008152602001600073ffffffffffffffffffffffffffffffffffffffff16815260200160008152506001600060045481526020019081526020016000206000820151816000015560208201518160010190805190602001906200018392919062000206565b5060408201518160020155606082015181600301556080820151816004015560a0820151816005015560c08201518160060160006101000a81548173ffffffffffffffffffffffffffffffffffffffff021916908373ffffffffffffffffffffffffffffffffffffffff16021790555060e0820151816007015590505050505050565b828054600181600116156101000203166002900490600052602060002090601f016020900481019282601f106200024957805160ff19168380011785556200027a565b828001600101855582156200027a579182015b82811115620002795782518255916020019190600101906200025c565b5b5090506200028991906200028d565b5090565b620002b291905b80821115620002ae57600081600090555060010162000294565b5090565b90565b611f0e80620002c56000396000f3006080604052600436106100fb576000357c0100000000000000000000000000000000000000000000000000000000900463ffffffff168062ce8e3e146101005780631356dd191461012b5780631ae84c4c146101625780631f5225951461019957806322edc6e9146101c457806323f18dd914610205578063362ac92a14610246578063365b98b21461028757806341e7b74a1461038a5780634f5b35dc146103cb5780636ba13a82146103f65780636eb62b681461042157806376b3d161146104bc5780638da5cb5b14610543578063af4afe0a1461059a578063ca07308d14610663578063f77a727b146106fe578063f8626af814610737575b600080fd5b34801561010c57600080fd5b506101156107f9565b6040518082815260200191505060405180910390f35b34801561013757600080fd5b506101606004803603810190808035906020019092919080359060200190929190505050610803565b005b34801561016e57600080fd5b5061019760048036038101908080359060200190929190803590602001909291905050506108d1565b005b3480156101a557600080fd5b506101ae61099f565b6040518082815260200191505060405180910390f35b3480156101d057600080fd5b506101ef600480360381019080803590602001909291905050506109a5565b6040518082815260200191505060405180910390f35b34801561021157600080fd5b5061023060048036038101908080359060200190929190505050610a0b565b6040518082815260200191505060405180910390f35b34801561025257600080fd5b5061027160048036038101908080359060200190929190505050610a6c565b6040518082815260200191505060405180910390f35b34801561029357600080fd5b506102b260048036038101908080359060200190929190505050610acd565b60405180898152602001806020018881526020018781526020018681526020018581526020018473ffffffffffffffffffffffffffffffffffffffff1673ffffffffffffffffffffffffffffffffffffffff168152602001838152602001828103825289818151815260200191508051906020019080838360005b8381101561034857808201518184015260208101905061032d565b50505050905090810190601f1680156103755780820380516001836020036101000a031916815260200191505b50995050505050505050505060405180910390f35b34801561039657600080fd5b506103b560048036038101908080359060200190929190505050610bcd565b6040518082815260200191505060405180910390f35b3480156103d757600080fd5b506103e0610c33565b6040518082815260200191505060405180910390f35b34801561040257600080fd5b5061040b610c39565b6040518082815260200191505060405180910390f35b34801561042d57600080fd5b506104a66004803603810190808035906020019092919080359060200190929190803590602001908201803590602001908080601f016020809104026020016040519081016040528093929190818152602001838380828437820191505050505050919291929080359060200190929190505050610c3f565b6040518082815260200191505060405180910390f35b3480156104c857600080fd5b50610541600480360381019080803590602001908201803590602001908080601f01602080910402602001604051908101604052809392919081815260200183838082843782019150505050505091929192908035906020019092919080359060200190929190803590602001909291905050506112e0565b005b34801561054f57600080fd5b50610558611406565b604051808273ffffffffffffffffffffffffffffffffffffffff1673ffffffffffffffffffffffffffffffffffffffff16815260200191505060405180910390f35b3480156105a657600080fd5b506105c56004803603810190808035906020019092919050505061142b565b6040518087815260200186815260200180602001858152602001848152602001838152602001828103825286818151815260200191508051906020019080838360005b83811015610623578082015181840152602081019050610608565b50505050905090810190601f1680156106505780820380516001836020036101000a031916815260200191505b5097505050505050505060405180910390f35b34801561066f57600080fd5b506106e86004803603810190808035906020019092919080359060200190929190803590602001908201803590602001908080601f01602080910402602001604051908101604052809392919081815260200183838082843782019150505050505091929192908035906020019092919050505061177f565b6040518082815260200191505060405180910390f35b34801561070a57600080fd5b50610713611c1c565b6040518082600381111561072357fe5b60ff16815260200191505060405180910390f35b34801561074357600080fd5b5061076260048036038101908080359060200190929190505050611c2f565b6040518086815260200180602001858152602001848152602001838152602001828103825286818151815260200191508051906020019080838360005b838110156107ba57808201518184015260208101905061079f565b50505050905090810190601f1680156107e75780820380516001836020036101000a031916815260200191505b50965050505050505060405180910390f35b6000600454905090565b60008090505b60045481101561084357600160008281526020019081526020016000206000015483141561083657610843565b8080600101915050610809565b81600160008381526020019081526020016000206007015414151561086757600080fd5b600090505b6006548110156108a6576003600082815260200190815260200160002060130154821415610899576108a6565b808060010191505061086c565b6003600082815260200190815260200160002060120160008154809291906001019190505550505050565b60008090505b60045481101561091157600160008281526020019081526020016000206000015483141561090457610911565b80806001019150506108d7565b81600160008381526020019081526020016000206007015414151561093557600080fd5b600090505b6005548110156109745760026000828152602001908152602001600020600b015482141561096757610974565b808060010191505061093a565b60026000828152602001908152602001600020600a0160008154809291906001019190505550505050565b60055481565b60008060008091505b6004548210156109e85760016000838152602001908152602001600020600001548414156109db576109e8565b81806001019250506109ae565b600160008381526020019081526020016000206003015490508092505050919050565b600080600090505b600554811015610a4d5760026000828152602001908152602001600020600b0154831415610a4057610a4d565b8080600101915050610a13565b60026000828152602001908152602001600020600a0154915050919050565b600080600090505b600654811015610aae576003600082815260200190815260200160002060130154831415610aa157610aae565b8080600101915050610a74565b6003600082815260200190815260200160002060120154915050919050565b6001602052806000526040600020600091509050806000015490806001018054600181600116156101000203166002900480601f016020809104026020016040519081016040528092919081815260200182805460018160011615610100020316600290048015610b7f5780601f10610b5457610100808354040283529160200191610b7f565b820191906000526020600020905b815481529060010190602001808311610b6257829003601f168201915b5050505050908060020154908060030154908060040154908060050154908060060160009054906101000a900473ffffffffffffffffffffffffffffffffffffffff16908060070154905088565b60008060008091505b600454821015610c10576001600083815260200190815260200160002060000154841415610c0357610c10565b8180600101925050610bd6565b600160008381526020019081526020016000206005015490508092505050919050565b60065481565b60045481565b60008060008060009054906101000a900473ffffffffffffffffffffffffffffffffffffffff16604051808273ffffffffffffffffffffffffffffffffffffffff1673ffffffffffffffffffffffffffffffffffffffff166c0100000000000000000000000002815260140191505060405180910390206000191633604051808273ffffffffffffffffffffffffffffffffffffffff1673ffffffffffffffffffffffffffffffffffffffff166c01000000000000000000000000028152601401915050604051809103902060001916141515610d1b57600080fd5b600091505b600454821015610d5a576001600083815260200190815260200160002060000154871415610d4d57610d5a565b8180600101925050610d20565b836001600084815260200190815260200160002060040160008282540192505081905550836001600084815260200190815260200160002060050160008282540392505081905550600090505b600454811015610de1576001600082815260200190815260200160002060000154861415610dd457610de1565b8080600101915050610da7565b8360016000838152602001908152602001600020600301600082825401925050819055506006600081548092919060010191905055506006546001600084815260200190815260200160002060070181905550600654600160008381526020019081526020016000206007018190555060c06040519081016040528060016000858152602001908152602001600020610100604051908101604052908160008201548152602001600182018054600181600116156101000203166002900480601f016020809104026020016040519081016040528092919081815260200182805460018160011615610100020316600290048015610f205780601f10610ef557610100808354040283529160200191610f20565b820191906000526020600020905b815481529060010190602001808311610f0357829003601f168201915b50505050508152602001600282015481526020016003820154815260200160048201548152602001600582015481526020016006820160009054906101000a900473ffffffffffffffffffffffffffffffffffffffff1673ffffffffffffffffffffffffffffffffffffffff1673ffffffffffffffffffffffffffffffffffffffff168152602001600782015481525050815260200160016000848152602001908152602001600020610100604051908101604052908160008201548152602001600182018054600181600116156101000203166002900480601f0160208091040260200160405190810160405280929190818152602001828054600181600116156101000203166002900480156110795780601f1061104e57610100808354040283529160200191611079565b820191906000526020600020905b81548152906001019060200180831161105c57829003601f168201915b50505050508152602001600282015481526020016003820154815260200160048201548152602001600582015481526020016006820160009054906101000a900473ffffffffffffffffffffffffffffffffffffffff1673ffffffffffffffffffffffffffffffffffffffff1673ffffffffffffffffffffffffffffffffffffffff16815260200160078201548152505081526020018681526020018581526020016001815260200160065481525060036000600654815260200190815260200160002060008201518160000160008201518160000155602082015181600101908051906020019061116c929190611e3d565b5060408201518160020155606082015181600301556080820151816004015560a0820151816005015560c08201518160060160006101000a81548173ffffffffffffffffffffffffffffffffffffffff021916908373ffffffffffffffffffffffffffffffffffffffff16021790555060e082015181600701555050602082015181600801600082015181600001556020820151816001019080519060200190611217929190611e3d565b5060408201518160020155606082015181600301556080820151816004015560a0820151816005015560c08201518160060160006101000a81548173ffffffffffffffffffffffffffffffffffffffff021916908373ffffffffffffffffffffffffffffffffffffffff16021790555060e08201518160070155505060408201518160100190805190602001906112af929190611e3d565b50606082015181601101556080820151816012015560a0820151816013015590505060065492505050949350505050565b60046000815480929190600101919050555061010060405190810160405280600454815260200185815260200184815260200183815260200182815260200160008152602001600073ffffffffffffffffffffffffffffffffffffffff1681526020016000815250600160006004548152602001908152602001600020600082015181600001556020820151816001019080519060200190611383929190611e3d565b5060408201518160020155606082015181600301556080820151816004015560a0820151816005015560c08201518160060160006101000a81548173ffffffffffffffffffffffffffffffffffffffff021916908373ffffffffffffffffffffffffffffffffffffffff16021790555060e0820151816007015590505050505050565b6000809054906101000a900473ffffffffffffffffffffffffffffffffffffffff1681565b600360205280600052604060002060009150905080600001610100604051908101604052908160008201548152602001600182018054600181600116156101000203166002900480601f0160208091040260200160405190810160405280929190818152602001828054600181600116156101000203166002900480156114f35780601f106114c8576101008083540402835291602001916114f3565b820191906000526020600020905b8154815290600101906020018083116114d657829003601f168201915b50505050508152602001600282015481526020016003820154815260200160048201548152602001600582015481526020016006820160009054906101000a900473ffffffffffffffffffffffffffffffffffffffff1673ffffffffffffffffffffffffffffffffffffffff1673ffffffffffffffffffffffffffffffffffffffff1681526020016007820154815250509080600801610100604051908101604052908160008201548152602001600182018054600181600116156101000203166002900480601f0160208091040260200160405190810160405280929190818152602001828054600181600116156101000203166002900480156116395780601f1061160e57610100808354040283529160200191611639565b820191906000526020600020905b81548152906001019060200180831161161c57829003601f168201915b50505050508152602001600282015481526020016003820154815260200160048201548152602001600582015481526020016006820160009054906101000a900473ffffffffffffffffffffffffffffffffffffffff1673ffffffffffffffffffffffffffffffffffffffff1673ffffffffffffffffffffffffffffffffffffffff16815260200160078201548152505090806010018054600181600116156101000203166002900480601f0160208091040260200160405190810160405280929190818152602001828054600181600116156101000203166002900480156117635780601f1061173857610100808354040283529160200191611763565b820191906000526020600020905b81548152906001019060200180831161174657829003601f168201915b5050505050908060110154908060120154908060130154905086565b60008060008060009054906101000a900473ffffffffffffffffffffffffffffffffffffffff16604051808273ffffffffffffffffffffffffffffffffffffffff1673ffffffffffffffffffffffffffffffffffffffff166c0100000000000000000000000002815260140191505060405180910390206000191633604051808273ffffffffffffffffffffffffffffffffffffffff1673ffffffffffffffffffffffffffffffffffffffff166c0100000000000000000000000002815260140191505060405180910390206000191614151561185b57600080fd5b600091505b60045482101561189a57600160008381526020019081526020016000206000015487141561188d5761189a565b8180600101925050611860565b600090505b6004548110156118d95760016000828152602001908152602001600020600001548614156118cc576118d9565b808060010191505061189f565b8360016000848152602001908152602001600020600301600082825401925050819055508360016000848152602001908152602001600020600501600082825401925050819055508360016000838152602001908152602001600020600401600082825401925050819055506005600081548092919060010191905055506005546001600084815260200190815260200160002060070181905550600554600160008381526020019081526020016000206007018190555060a06040519081016040528060016000858152602001908152602001600020610100604051908101604052908160008201548152602001600182018054600181600116156101000203166002900480601f016020809104026020016040519081016040528092919081815260200182805460018160011615610100020316600290048015611a605780601f10611a3557610100808354040283529160200191611a60565b820191906000526020600020905b815481529060010190602001808311611a4357829003601f168201915b50505050508152602001600282015481526020016003820154815260200160048201548152602001600582015481526020016006820160009054906101000a900473ffffffffffffffffffffffffffffffffffffffff1673ffffffffffffffffffffffffffffffffffffffff1673ffffffffffffffffffffffffffffffffffffffff168152602001600782015481525050815260200186815260200185815260200160018152602001600554815250600260006005548152602001908152602001600020600082015181600001600082015181600001556020820151816001019080519060200190611b53929190611e3d565b5060408201518160020155606082015181600301556080820151816004015560a0820151816005015560c08201518160060160006101000a81548173ffffffffffffffffffffffffffffffffffffffff021916908373ffffffffffffffffffffffffffffffffffffffff16021790555060e0820151816007015550506020820151816008019080519060200190611beb929190611e3d565b5060408201518160090155606082015181600a0155608082015181600b015590505060055492505050949350505050565b600760009054906101000a900460ff1681565b600260205280600052604060002060009150905080600001610100604051908101604052908160008201548152602001600182018054600181600116156101000203166002900480601f016020809104026020016040519081016040528092919081815260200182805460018160011615610100020316600290048015611cf75780601f10611ccc57610100808354040283529160200191611cf7565b820191906000526020600020905b815481529060010190602001808311611cda57829003601f168201915b50505050508152602001600282015481526020016003820154815260200160048201548152602001600582015481526020016006820160009054906101000a900473ffffffffffffffffffffffffffffffffffffffff1673ffffffffffffffffffffffffffffffffffffffff1673ffffffffffffffffffffffffffffffffffffffff16815260200160078201548152505090806008018054600181600116156101000203166002900480601f016020809104026020016040519081016040528092919081815260200182805460018160011615610100020316600290048015611e215780601f10611df657610100808354040283529160200191611e21565b820191906000526020600020905b815481529060010190602001808311611e0457829003601f168201915b50505050509080600901549080600a01549080600b0154905085565b828054600181600116156101000203166002900490600052602060002090601f016020900481019282601f10611e7e57805160ff1916838001178555611eac565b82800160010185558215611eac579182015b82811115611eab578251825591602001919060010190611e90565b5b509050611eb99190611ebd565b5090565b611edf91905b80821115611edb576000816000905550600101611ec3565b5090565b905600a165627a7a72305820a7617cda51e0fe5a7e80bfd0e4aa72fd1053596ccc18acaa6348928e2d49f0c40029",
  "source": "pragma solidity ^0.4.24;\n\ncontract OrgBlock {\n\n  enum uType {PaymentGateway, Organization, Donor, Retailer}\n  address public owner;\n\n  struct User {\n      uint id;\n      string s;\n      uint reputation;\n      uint amount_recieved;\n      uint amount_spent;\n      uint amount_remaining;\n      address user_addr;\n      uint latest_transaction;\n    }\n\n  struct Donation {\n    User toOrg;\n    string donationNote;\n    uint amountDonated;\n    uint donValidity;\n    uint id;\n  }\n\n  struct OrgExpense {\n    User fromOrg;\n    User toRetail;\n    string purpose;\n    uint amountSpent;\n    uint expValidity;\n    uint id;\n  }\n\n  mapping(uint => User) public users;\n  mapping(uint => Donation) public donations;\n  mapping(uint => OrgExpense) public expenses;\n\n  uint public usersCount;\n  uint public donationsCount;\n  uint public expensesCount;\n\n  uType public uT;\n\n  constructor() public {\n    uint Org = 3;\n    uint Don = 10;\n    uint Ret = 5;\n    uint PayG = 1;\n\n    usersCount = 0;\n    donationsCount = 0;\n    expensesCount = 0;\n\n    owner = msg.sender;\n\n    addUser(\"PaymentGateway\", 0, 0, 0);\n  }\n\n  function addUser (string _s, uint _reputation, uint _amount_recieved, uint _amount_spent) public {\n      usersCount ++;\n      users[usersCount] = User(usersCount, _s, _reputation, _amount_recieved, _amount_spent, 0, 0x000,0);\n  }\n\n  function getUsers() public view returns (uint){\n    return usersCount;\n  }\n\n  function addDonation (uint org_id, uint donor_id, string donationNote, uint amountDonated) public returns (uint){\n      require(keccak256(msg.sender) == keccak256(owner));\n      for(uint i=0; i<usersCount; i++){\n          if(org_id == users[i].id)\n            break;\n      }\n      for(uint j=0; j<usersCount; j++){\n          if(donor_id == users[j].id)\n            break;\n      }\n\n      users[i].amount_recieved += amountDonated;\n      users[i].amount_remaining += amountDonated;\n      users[j].amount_spent += amountDonated;\n\n      donationsCount ++;\n      users[i].latest_transaction = donationsCount;\n      users[j].latest_transaction = donationsCount;\n      donations[donationsCount] = Donation(users[i], donationNote, amountDonated,1, donationsCount);\n      return donationsCount;\n  }\n\n  function addExpense (uint org_id, uint retail_id, string purpose, uint amountSpent) public returns (uint){\n      require(keccak256(msg.sender) == keccak256(owner));\n      for(uint i=0; i<usersCount; i++){\n          if(org_id == users[i].id)\n            break;\n      }\n      users[i].amount_spent += amountSpent;\n      users[i].amount_remaining -= amountSpent;\n\n\n      for(uint j=0; j<usersCount; j++){\n          if(retail_id == users[j].id)\n            break;\n      }\n      users[j].amount_recieved += amountSpent;\n\n\n      expensesCount ++;\n      users[i].latest_transaction = expensesCount;\n      users[j].latest_transaction = expensesCount;\n      expenses[expensesCount] = OrgExpense(users[i], users[j], purpose, amountSpent, 1, expensesCount);\n      return expensesCount;\n  }\n\n  function validateDonation(uint u_id, uint t_id) public{\n      for(uint i=0; i<usersCount; i++){\n          if(u_id == users[i].id)\n            break;\n      }\n      require(users[i].latest_transaction == t_id);\n      for(i=0; i<donationsCount; i++){\n          if(t_id == donations[i].id)\n            break;\n      }\n      donations[i].donValidity++;\n  }\n\n  function getDonValidity(uint t_id) public view returns(uint) {\n      for(uint i=0; i<donationsCount; i++){\n          if(t_id == donations[i].id)\n            break;\n      }\n      return donations[i].donValidity;\n  }\n\n\n  function validateExpense(uint u_id, uint t_id) public{\n      for(uint i=0; i<usersCount; i++){\n          if(u_id == users[i].id)\n            break;\n      }\n      require(users[i].latest_transaction == t_id);\n      for(i=0; i<expensesCount; i++){\n          if(t_id == expenses[i].id)\n            break;\n      }\n      expenses[i].expValidity++;\n  }\n\n  function getExpValidity(uint t_id) public view returns(uint) {\n      for(uint i=0; i<expensesCount; i++){\n          if(t_id == expenses[i].id)\n            break;\n      }\n      return expenses[i].expValidity;\n  }\n\n  function getAmountRecieved(uint org_id) public view returns(uint){\n      for(uint i=0; i<usersCount; i++){\n          if(org_id == users[i].id)\n            break;\n      }\n      uint ret_value = users[i].amount_recieved;\n      return ret_value;\n  }\n\n  function getAmountRemaining(uint org_id) public view returns(uint){\n      for(uint i=0; i<usersCount; i++){\n          if(org_id == users[i].id)\n            break;\n      }\n      uint ret_value = users[i].amount_remaining;\n      return ret_value;\n  }\n}",
  "sourcePath": "/Users/shreyas/Desktop/UCI Blockathon/OrgBlock_v0/contracts/OrgBlock.sol",
  "compiler": {
    "name": "solc",
    "version": "0.4.24+commit.e67f0147.Emscripten.clang"
  },
  "schemaVersion": "2.0.1",
  "updatedAt": "2018-10-21T16:40:09.738Z"
}