{
  "contractName": "OrgBlock",
  "abi": [
    {
      "constant": true,
      "inputs": [],
      "name": "donationsCount",
      "outputs": [
        {
          "name": "",
          "type": "uint256"
        }
      ],
      "payable": false,
      "stateMutability": "view",
      "type": "function"
    },
    {
      "constant": true,
      "inputs": [
        {
          "name": "",
          "type": "uint256"
        }
      ],
      "name": "users",
      "outputs": [
        {
          "name": "id",
          "type": "uint256"
        },
        {
          "name": "s",
          "type": "string"
        },
        {
          "name": "reputation",
          "type": "uint256"
        },
        {
          "name": "amount_recieved",
          "type": "uint256"
        },
        {
          "name": "amount_spent",
          "type": "uint256"
        }
      ],
      "payable": false,
      "stateMutability": "view",
      "type": "function"
    },
    {
      "constant": true,
      "inputs": [],
      "name": "expensesCount",
      "outputs": [
        {
          "name": "",
          "type": "uint256"
        }
      ],
      "payable": false,
      "stateMutability": "view",
      "type": "function"
    },
    {
      "constant": true,
      "inputs": [],
      "name": "usersCount",
      "outputs": [
        {
          "name": "",
          "type": "uint256"
        }
      ],
      "payable": false,
      "stateMutability": "view",
      "type": "function"
    },
    {
      "constant": true,
      "inputs": [
        {
          "name": "",
          "type": "uint256"
        }
      ],
      "name": "expenses",
      "outputs": [
        {
          "components": [
            {
              "name": "id",
              "type": "uint256"
            },
            {
              "name": "s",
              "type": "string"
            },
            {
              "name": "reputation",
              "type": "uint256"
            },
            {
              "name": "amount_recieved",
              "type": "uint256"
            },
            {
              "name": "amount_spent",
              "type": "uint256"
            }
          ],
          "name": "fromOrg",
          "type": "tuple"
        },
        {
          "components": [
            {
              "name": "id",
              "type": "uint256"
            },
            {
              "name": "s",
              "type": "string"
            },
            {
              "name": "reputation",
              "type": "uint256"
            },
            {
              "name": "amount_recieved",
              "type": "uint256"
            },
            {
              "name": "amount_spent",
              "type": "uint256"
            }
          ],
          "name": "toRetail",
          "type": "tuple"
        },
        {
          "name": "purpose",
          "type": "string"
        },
        {
          "name": "amountSpent",
          "type": "uint256"
        },
        {
          "name": "expValidity",
          "type": "uint256"
        }
      ],
      "payable": false,
      "stateMutability": "view",
      "type": "function"
    },
    {
      "constant": true,
      "inputs": [],
      "name": "uT",
      "outputs": [
        {
          "name": "",
          "type": "uint8"
        }
      ],
      "payable": false,
      "stateMutability": "view",
      "type": "function"
    },
    {
      "constant": true,
      "inputs": [
        {
          "name": "",
          "type": "uint256"
        }
      ],
      "name": "donations",
      "outputs": [
        {
          "components": [
            {
              "name": "id",
              "type": "uint256"
            },
            {
              "name": "s",
              "type": "string"
            },
            {
              "name": "reputation",
              "type": "uint256"
            },
            {
              "name": "amount_recieved",
              "type": "uint256"
            },
            {
              "name": "amount_spent",
              "type": "uint256"
            }
          ],
          "name": "toOrg",
          "type": "tuple"
        },
        {
          "name": "donationNote",
          "type": "string"
        },
        {
          "name": "amountDonated",
          "type": "uint256"
        },
        {
          "name": "donationValidity",
          "type": "uint256"
        }
      ],
      "payable": false,
      "stateMutability": "view",
      "type": "function"
    },
    {
      "inputs": [],
      "payable": false,
      "stateMutability": "nonpayable",
      "type": "constructor"
    },
    {
      "constant": true,
      "inputs": [],
      "name": "getUsers",
      "outputs": [
        {
          "name": "",
          "type": "uint256"
        }
      ],
      "payable": false,
      "stateMutability": "view",
      "type": "function"
    },
    {
      "constant": false,
      "inputs": [
        {
          "name": "org_id",
          "type": "uint256"
        },
        {
          "name": "donationNote",
          "type": "string"
        },
        {
          "name": "amountDonated",
          "type": "uint256"
        }
      ],
      "name": "addDonation",
      "outputs": [
        {
          "name": "",
          "type": "uint256"
        }
      ],
      "payable": false,
      "stateMutability": "nonpayable",
      "type": "function"
    },
    {
      "constant": false,
      "inputs": [
        {
          "name": "org_id",
          "type": "uint256"
        },
        {
          "name": "retail_id",
          "type": "uint256"
        },
        {
          "name": "purpose",
          "type": "string"
        },
        {
          "name": "amountSpent",
          "type": "uint256"
        }
      ],
      "name": "addExpense",
      "outputs": [
        {
          "name": "",
          "type": "uint256"
        }
      ],
      "payable": false,
      "stateMutability": "nonpayable",
      "type": "function"
    },
    {
      "constant": false,
      "inputs": [
        {
          "name": "From",
          "type": "string"
        },
        {
          "name": "To",
          "type": "string"
        },
        {
          "name": "Remark",
          "type": "string"
        },
        {
          "name": "Amount",
          "type": "uint256"
        },
        {
          "name": "Validity",
          "type": "uint256"
        }
      ],
      "name": "createBlock",
      "outputs": [
        {
          "name": "",
          "type": "string"
        }
      ],
      "payable": false,
      "stateMutability": "nonpayable",
      "type": "function"
    }
  ],
  "bytecode": "0x60806040523480156200001157600080fd5b50600080600080600060039450600a93506005925060019150600060038190555060006004819055506000600581905550600090505b84811015620000b257620000a46040805190810160405280600c81526020017f4f7267616e697a6174696f6e00000000000000000000000000000000000000008152506000806000620001f1640100000000026401000000009004565b808060010191505062000047565b600090505b838110156200012257620001146040805190810160405280600581526020017f446f6e6f720000000000000000000000000000000000000000000000000000008152506000806000620001f1640100000000026401000000009004565b8080600101915050620000b7565b600090505b828110156200019257620001846040805190810160405280600881526020017f52657461696c65720000000000000000000000000000000000000000000000008152506000806000620001f1640100000000026401000000009004565b808060010191505062000127565b620001e66040805190810160405280600e81526020017f5061796d656e74476174657761790000000000000000000000000000000000008152506000806000620001f1640100000000026401000000009004565b505050505062000340565b60036000815480929190600101919050555060a06040519081016040528060035481526020018581526020018481526020018381526020018281525060008060035481526020019081526020016000206000820151816000015560208201518160010190805190602001906200026992919062000291565b5060408201518160020155606082015181600301556080820151816004015590505050505050565b828054600181600116156101000203166002900490600052602060002090601f016020900481019282601f10620002d457805160ff191683800117855562000305565b8280016001018555821562000305579182015b8281111562000304578251825591602001919060010190620002e7565b5b50905062000314919062000318565b5090565b6200033d91905b80821115620003395760008160009055506001016200031f565b5090565b90565b61127580620003506000396000f3006080604052600436106100ae576000357c0100000000000000000000000000000000000000000000000000000000900463ffffffff168062ce8e3e146100b35780631f522595146100de578063365b98b2146101095780634f5b35dc146101cb57806364bb0371146101f65780636ba13a82146102875780636eb62b68146102b2578063af4afe0a1461034d578063c16f3fff1461040f578063f77a727b14610591578063f8626af8146105ca575b600080fd5b3480156100bf57600080fd5b506100c8610685565b6040518082815260200191505060405180910390f35b3480156100ea57600080fd5b506100f361068f565b6040518082815260200191505060405180910390f35b34801561011557600080fd5b5061013460048036038101908080359060200190929190505050610695565b6040518086815260200180602001858152602001848152602001838152602001828103825286818151815260200191508051906020019080838360005b8381101561018c578082015181840152602081019050610171565b50505050905090810190601f1680156101b95780820380516001836020036101000a031916815260200191505b50965050505050505060405180910390f35b3480156101d757600080fd5b506101e0610763565b6040518082815260200191505060405180910390f35b34801561020257600080fd5b5061027160048036038101908080359060200190929190803590602001908201803590602001908080601f016020809104026020016040519081016040528093929190818152602001838380828437820191505050505050919291929080359060200190929190505050610769565b6040518082815260200191505060405180910390f35b34801561029357600080fd5b5061029c610995565b6040518082815260200191505060405180910390f35b3480156102be57600080fd5b506103376004803603810190808035906020019092919080359060200190929190803590602001908201803590602001908080601f01602080910402602001604051908101604052809392919081815260200183838082843782019150505050505091929192908035906020019092919050505061099b565b6040518082815260200191505060405180910390f35b34801561035957600080fd5b5061037860048036038101908080359060200190929190505050610d6e565b6040518086815260200185815260200180602001848152602001838152602001828103825285818151815260200191508051906020019080838360005b838110156103d05780820151818401526020810190506103b5565b50505050905090810190601f1680156103fd5780820380516001836020036101000a031916815260200191505b50965050505050505060405180910390f35b34801561041b57600080fd5b50610516600480360381019080803590602001908201803590602001908080601f0160208091040260200160405190810160405280939291908181526020018383808284378201915050505050509192919290803590602001908201803590602001908080601f0160208091040260200160405190810160405280939291908181526020018383808284378201915050505050509192919290803590602001908201803590602001908080601f01602080910402602001604051908101604052809392919081815260200183838082843782019150505050505091929192908035906020019092919080359060200190929190505050610fe6565b6040518080602001828103825283818151815260200191508051906020019080838360005b8381101561055657808201518184015260208101905061053b565b50505050905090810190601f1680156105835780820380516001836020036101000a031916815260200191505b509250505060405180910390f35b34801561059d57600080fd5b506105a6610ff4565b604051808260038111156105b657fe5b60ff16815260200191505060405180910390f35b3480156105d657600080fd5b506105f560048036038101908080359060200190929190505050611007565b6040518085815260200180602001848152602001838152602001828103825285818151815260200191508051906020019080838360005b8381101561064757808201518184015260208101905061062c565b50505050905090810190601f1680156106745780820380516001836020036101000a031916815260200191505b509550505050505060405180910390f35b6000600354905090565b60045481565b6000602052806000526040600020600091509050806000015490806001018054600181600116156101000203166002900480601f0160208091040260200160405190810160405280929190818152602001828054600181600116156101000203166002900480156107475780601f1061071c57610100808354040283529160200191610747565b820191906000526020600020905b81548152906001019060200180831161072a57829003601f168201915b5050505050908060020154908060030154908060040154905085565b60055481565b600080600090505b6003548110156107aa576000808281526020019081526020016000206000015485141561079d576107aa565b8080600101915050610771565b60046000815480929190600101919050555060806040519081016040528060008084815260200190815260200160002060a0604051908101604052908160008201548152602001600182018054600181600116156101000203166002900480601f0160208091040260200160405190810160405280929190818152602001828054600181600116156101000203166002900480156108895780601f1061085e57610100808354040283529160200191610889565b820191906000526020600020905b81548152906001019060200180831161086c57829003601f168201915b5050505050815260200160028201548152602001600382015481526020016004820154815250508152602001858152602001848152602001600181525060016000600454815260200190815260200160002060008201518160000160008201518160000155602082015181600101908051906020019061090a9291906111a4565b50604082015181600201556060820151816003015560808201518160040155505060208201518160050190805190602001906109479291906111a4565b50604082015181600601556060820151816007015590505082600160006004548152602001908152602001600020600001600301600082825401925050819055506004549150509392505050565b60035481565b60008060008091505b6003548210156109dd57600080838152602001908152602001600020600001548714156109d0576109dd565b81806001019250506109a4565b600090505b600354811015610a1b5760008082815260200190815260200160002060000154861415610a0e57610a1b565b80806001019150506109e2565b60056000815480929190600101919050555060a06040519081016040528060008085815260200190815260200160002060a0604051908101604052908160008201548152602001600182018054600181600116156101000203166002900480601f016020809104026020016040519081016040528092919081815260200182805460018160011615610100020316600290048015610afa5780601f10610acf57610100808354040283529160200191610afa565b820191906000526020600020905b815481529060010190602001808311610add57829003601f168201915b505050505081526020016002820154815260200160038201548152602001600482015481525050815260200160008084815260200190815260200160002060a0604051908101604052908160008201548152602001600182018054600181600116156101000203166002900480601f016020809104026020016040519081016040528092919081815260200182805460018160011615610100020316600290048015610be75780601f10610bbc57610100808354040283529160200191610be7565b820191906000526020600020905b815481529060010190602001808311610bca57829003601f168201915b50505050508152602001600282015481526020016003820154815260200160048201548152505081526020018681526020018581526020016001815250600260006005548152602001908152602001600020600082015181600001600082015181600001556020820151816001019080519060200190610c689291906111a4565b506040820151816002015560608201518160030155608082015181600401555050602082015181600501600082015181600001556020820151816001019080519060200190610cb89291906111a4565b506040820151816002015560608201518160030155608082015181600401555050604082015181600a019080519060200190610cf59291906111a4565b50606082015181600b0155608082015181600c01559050508360026000600554815260200190815260200160002060000160040160008282540192505081905550836002600060055481526020019081526020016000206005016003016000828254019250508190555060055492505050949350505050565b60026020528060005260406000206000915090508060000160a0604051908101604052908160008201548152602001600182018054600181600116156101000203166002900480601f016020809104026020016040519081016040528092919081815260200182805460018160011615610100020316600290048015610e355780601f10610e0a57610100808354040283529160200191610e35565b820191906000526020600020905b815481529060010190602001808311610e1857829003601f168201915b505050505081526020016002820154815260200160038201548152602001600482015481525050908060050160a0604051908101604052908160008201548152602001600182018054600181600116156101000203166002900480601f016020809104026020016040519081016040528092919081815260200182805460018160011615610100020316600290048015610f105780601f10610ee557610100808354040283529160200191610f10565b820191906000526020600020905b815481529060010190602001808311610ef357829003601f168201915b5050505050815260200160028201548152602001600382015481526020016004820154815250509080600a018054600181600116156101000203166002900480601f016020809104026020016040519081016040528092919081815260200182805460018160011615610100020316600290048015610fd05780601f10610fa557610100808354040283529160200191610fd0565b820191906000526020600020905b815481529060010190602001808311610fb357829003601f168201915b50505050509080600b01549080600c0154905085565b606084905095945050505050565b600660009054906101000a900460ff1681565b60016020528060005260406000206000915090508060000160a0604051908101604052908160008201548152602001600182018054600181600116156101000203166002900480601f0160208091040260200160405190810160405280929190818152602001828054600181600116156101000203166002900480156110ce5780601f106110a3576101008083540402835291602001916110ce565b820191906000526020600020905b8154815290600101906020018083116110b157829003601f168201915b50505050508152602001600282015481526020016003820154815260200160048201548152505090806005018054600181600116156101000203166002900480601f01602080910402602001604051908101604052809291908181526020018280546001816001161561010002031660029004801561118e5780601f106111635761010080835404028352916020019161118e565b820191906000526020600020905b81548152906001019060200180831161117157829003601f168201915b5050505050908060060154908060070154905084565b828054600181600116156101000203166002900490600052602060002090601f016020900481019282601f106111e557805160ff1916838001178555611213565b82800160010185558215611213579182015b828111156112125782518255916020019190600101906111f7565b5b5090506112209190611224565b5090565b61124691905b8082111561124257600081600090555060010161122a565b5090565b905600a165627a7a723058200d4022fc2bc7d738b109d99161422f37191675474f3946fc6344e6bc4181ff610029",
  "source": "pragma solidity ^0.4.24;\n\ncontract OrgBlock {\n\n  enum uType {Organization,Donor,Retailer,PaymentGateway}\n\n  struct User {\n      uint id;\n      string s;\n      uint reputation;\n      uint amount_recieved;\n      uint amount_spent;\n    }\n\n  struct Donation {\n    User toOrg;\n    string donationNote;\n    uint amountDonated;\n    uint donationValidity;\n  }\n\n  struct OrgExpense {\n    User fromOrg;\n    User toRetail;\n    string purpose;\n    uint amountSpent;\n    uint expValidity;\n  }\n\n  mapping(uint => User) public users;\n  mapping(uint => Donation) public donations;\n  mapping(uint => OrgExpense) public expenses;\n\n  uint public usersCount;\n  uint public donationsCount;\n  uint public expensesCount;\n\n  uType public uT;\n\n  constructor() public {\n    uint Org = 3;\n    uint Don = 10;\n    uint Ret = 5;\n    uint PayG = 1;\n\n    usersCount = 0;\n    donationsCount = 0;\n    expensesCount = 0;\n\n\n    for (uint i=0; i<Org; i++) {\n      addUser(\"Organization\", 0, 0, 0);\n    }\n    \n    for (i=0; i<Don; i++) {\n      addUser(\"Donor\", 0, 0, 0);\n    }\n\n    for (i=0; i<Ret; i++) {\n      addUser(\"Retailer\", 0, 0, 0);\n    }\n\n    addUser(\"PaymentGateway\", 0, 0, 0);\n  }\n\n  function addUser (string _s, uint _reputation, uint _amount_recieved, uint _amount_spent) private{\n      usersCount ++;\n      users[usersCount] = User(usersCount, _s, _reputation, _amount_recieved, _amount_spent);\n  }\n\n  function getUsers() public view returns (uint){\n    return usersCount;\n  }\n\n  function addDonation (uint org_id, string donationNote, uint amountDonated) public returns (uint){\n      for(uint i=0; i<usersCount; i++){\n          if(org_id == users[i].id)\n            break;\n      }\n\n      donationsCount ++;\n      donations[donationsCount] = Donation(users[i], donationNote, amountDonated,1);\n      donations[donationsCount].toOrg.amount_recieved += amountDonated;\n      return donationsCount;\n  }\n\n  function addExpense (uint org_id, uint retail_id, string purpose, uint amountSpent) public returns (uint){\n\n      for(uint i=0; i<usersCount; i++){\n          if(org_id == users[i].id)\n            break;\n      }\n\n      for(uint j=0; j<usersCount; j++){\n          if(retail_id == users[j].id)\n            break;\n      }\n      expensesCount ++;\n      expenses[expensesCount] = OrgExpense(users[i], users[j], purpose, amountSpent,1);\n      expenses[expensesCount].fromOrg.amount_spent += amountSpent;\n      expenses[expensesCount].toRetail.amount_recieved += amountSpent;\n      return expensesCount;\n  }\n\n  function createBlock(string From, string To, string Remark, uint Amount, uint Validity) public returns (string) {\n    return To;\n  }\n}",
  "sourcePath": "/Users/shreyas/Desktop/UCI Blockathon/OrgBlock_v0/contracts/OrgBlock.sol",
  "compiler": {
    "name": "solc",
    "version": "0.4.24+commit.e67f0147.Emscripten.clang"
  },
  "schemaVersion": "2.0.1",
  "updatedAt": "2018-10-21T14:01:54.995Z"
}